:1000000083EF07F00000000000EF00F000000000A8
:0A0010000000000000000000F3D71C
:0C001C00060E0D6E0D2EFED70000120027
:0A002800F9DF8482F7DF84921200F2
:06003200000000001200B6
:100038007F0E00019E15006E00C09EF08294849091
:10004800BF0E001600C09EF0008C00C09EF000C0DD
:0600580083FFE6DF120049
:10005E0082948490B80E00019E11836EDEDF120032
:10006E007F0E00019E15016E01C09EF001AC03D003
:0C007E008280829202D082908282120066
:10008A00FF0E956ED1DFD0DF8284849284808482D1
:10009A00C0DF83CF9EF084928490C6DFC5DF956A65
:0600AA009EC000F01200F0
:0E00B0008492828484909EC083FFB6DF12008B
:1000BE00000E0001985D0AE398517F0807E3000ED9
:1000CE00995D04E399513F0801E301D04AD098C0ED
:1000DE009EF0C6DF99C09EF09E339E9F9E339E9FDC
:1000EE009E339E9FB5DF98C09EF09FDFC7DF00C096
:1000FE009DF0C4DF00C09DF099C09EF09E339E9F80
:10010E009E339E9F9E339E9FA3DF98C09EF08DDFF1
:10011E00070E9915006E00C09BF000C001F0010E95
:10012E00006E015004E000360090FF0FFBD700C0B8
:10013E009BF0001C9C6F09D09C519D170FD09B51BA
:10014E009D130CD09B519D1B09D09A51000AF4E0CF
:10015E009A51010AF4E09A51020AF4E09DC09EF011
:04016E00A0DF1200FC
:100172000B6A0A6A096A00500402F4CF09F0F3CF4D
:1001820008F001500502F4CF0BF0F3CF0AF0005053
:100192000502F3500926F4500A22E86A0B220150A4
:1001A2000402F3500926F4500A22E86A0B2208C01E
:1001B20000F009C001F00AC002F00BC003F0120007
:1001C200000E0001955D04E395513F0801E301D063
:1001D20027D0000E935DD8A0936B93517F0802E263
:1001E2007F0E936F000E945DD8A0946B94517F089C
:1001F20002E27F0E946F9351945D06E293C097F0F2
:1002020094C093F097C094F09351945D09E393C026
:1002120098F095C099F096C09AF050DF932BF4D7DE
:020222001200C8
:0E022400ACB202D00000FCD789C0ADFF1200C2
:100232008AC08EF000018E518C5D0BE389C093F071
:100242008BC094F08EC095F08DC096F0B9DF8E2BE6
:04025200F1D71200CE
:1002560000018B51070801E282D06951895D006E69
:100266006AC001F0000E015656C004F0000E056E7D
:100276007DDF00C091F001C092F08AC09EF0D9DE09
:100286008BC09EF0E9DE8D6B56508D5D49E28A513A
:100296007F0801E264D08AC09EF0E6DE8BC09EF045
:1002A600DBDE8AC09EF0C5DEEDDE00C08EF0EADE43
:1002B60000C08EF08AC09EF0D7DE8BC09EF0CCDEEA
:1002C6008AC09EF0B6DE91516B25F66E92516C2176
:1002D600F76E000E92BFFF0E6D21F86E0900F5CF86
:1002E60000F000C08FF0914B922B001C906F09D04C
:1002F60090C08EF00FD08FC08EF00CD08F518E1B19
:1003060009D08C51000AF4E08C51010AF4E08C51BA
:10031600020AF4E08EC09EF0C8DE8A2B8D2BB4D77D
:100326008AC09EF0A1DE8BC09EF096DE8AC09EF04B
:1003360080DEFF0E8F6F906B0CD08FC08EF08FC05B
:100346009EF0B3DE0CD090C08EF090C09EF0ADDE75
:1003560006D08C51000AF1E08C51010AF4E012003B
:1003660000018251050F896F83511C0F8A6F8251DC
:10037600060F8B6F8351190F8C6F84C08DF056DF7B
:100386008251100F896F8351100F8A6F82510D0FA2
:100396008B6F83510D0F8C6F84C08DF047DF8251B8
:1003A6000D0F896F8351100F8A6F82510A0F8B6F61
:1003B60083510D0F8C6F84C08DF038DF8251100F82
:1003C600896F8351130F8A6F82510D0F8B6F835183
:1003D600100F8C6F84C08DF029DF82510D0F896F4D
:1003E6008351130F8A6F82510A0F8B6F8351100F3F
:1003F6008C6F84C08DF01ADF8251100F896F835184
:10040600160F8A6F82510D0F8B6F8351130F8C6FEE
:1004160084C08DF00BDF82510D0F896F8351160F4B
:100426008A6F82510A0F8B6F8351130F8C6F84C0B2
:100436008DF0FCDE8251140F896F8351170F8A6F7E
:100446008251150F8B6F8351180F8C6F84C08DF0FE
:10045600EDDE8251110F896F8351170F8A6F82511A
:10046600120F8B6F8351180F8C6F84C08DF0DEDEF8
:1004760082510E0F896F8351170F8A6F82510F0FAA
:100486008B6F8351180F8C6F84C08DF0CFDE825135
:100496000B0F896F8351170F8A6F82510C0F8B6F69
:1004A6008351180F8C6F84C08DF0C0DE8251080F07
:1004B600896F8351170F8A6F8251090F8B6F835192
:1004C600180F8C6F84C08DF0B1DE8251050F896FD5
:1004D6008351170F8A6F8251060F8B6F8351180F46
:1004E6008C6F84C08DF0A2DE8251140F896F835108
:1004F6001A0F8A6F8251150F8B6F83511B0F8C6FEA
:1005060084C08DF093DE8251110F896F83511A0FCB
:100516008A6F8251120F8B6F83511B0F8C6F84C0B1
:100526008DF084DE82510E0F896F83511A0F8A6F08
:1005360082510F0F8B6F83511B0F8C6F84C08DF010
:1005460075DE82510B0F896F83511A0F8A6F8251A4
:100556000C0F8B6F83511B0F8C6F84C08DF066DE82
:100566008251080F896F83510E0F8A6F8251090FCE
:100576008B6F83510F0F8C6F84C08DF057DE120086
:10058600546A00016E6B6F6B969496929494969053
:10059600949094928494956A8294849082908282B4
:1005A60084843F0E836E3DDDC00E836E3ADD82800D
:1005B60082923F0E836E35DDC00E836E32DD1200F1
:1005C600829082820001846B845107080EE384C006
:1005D6009EF042DD836B83513F0805E382C09EF0A7
:1005E60064DD832BF8D7842BEFD782928280846BCD
:1005F600845107080EE384C09EF02EDD836B835181
:100606003F0805E382C09EF050DD832BF8D7842B8C
:04061600EFD7120008
:10061A000900F5CFE6FF0006FBE10106F9E1120049
:10062A00240E576E020E586E890E596E000E5A6EBF
:10063A00FF0E5C6EFF0E5D6E000E5E6E000E5F6E4C
:10064A00FF0E0001656FFF0E666F000E676F000EEA
:10065A00686FFF0E616FFF0E626F000E636F000E10
:10066A00646FAC8A900EAB6E948E949C9EAA03D053
:08067A00AECF00F0FBD7120027
:100682000001856B82C0E9FF83C0EAFFEECF84F0F0
:100692008451000A0EE084C089F0C3DD0001852B7D
:1006A20085518225E96E000E8321EA6EEECF84F039
:0406B200EFD712006C
:1006B60082C070F083C071F084C001F0010E006E3C
:1006C600015004E000360090FF0FFBD700C060F039
:1006D600001E00C05BF0120E00018225E96E000EBE
:1006E6008321EA6E0050EF16120EE95E0050EF16F7
:0206F6001200F0
:1006F80000018251010F896F83511F0F8A6F825148
:10070800020F8B6F8351200F8C6F84C08DF08DDDAD
:100718008251100F896F83511F0F8A6F8251110FF9
:100728008B6F8351200F8C6F84C08DF07EDD8251DA
:100738000D0F896F83511F0F8A6F82510E0F8B6FB8
:100748008351200F8C6F84C08DF06FDD82510A0FAA
:10075800896F83511F0F8A6F82510B0F8B6F8351E3
:10076800200F8C6F84C08DF060DD8251070F896F78
:1007780083511F0F8A6F8251080F8B6F8351200F8F
:100788008C6F84C08DF051DD8251040F896F8351C5
:100798001F0F8A6F8251050F8B6F8351200F8C6F4B
:0807A80084C08DF042DD120057
:1007B00082C089F000018351100F8A6F8251010FAE
:1007C0008B6F8351110F8C6F84C08DF032DD82519D
:1007D000090F896F8351160F8A6F82510A0F8B6F31
:1007E0008351170F8C6F84C08DF023DD8251090F68
:1007F000896F8351130F8A6F82510A0F8B6F835158
:10080000140F8C6F84C08DF014DD8251090F896F35
:100810008351190F8A6F82510A0F8B6F83511A0F00
:100820008C6F84C08DF005DD8251060F896F835176
:10083000190F8A6F8251070F8B6F83511A0F8C6FBC
:1008400084C08DF0F6DC8251030F896F8351190F3C
:100850008A6F8251040F8B6F83511A0F8C6F84C083
:100860008DF0E7DC8251090F896F8351100F8A6F79
:1008700082510A0F8B6F8351110F8C6F84C08DF0E2
:10088000D8DC8251060F896F8351100F8A6F825115
:10089000070F8B6F8351110F8C6F84C08DF0C9DCF3
:1008A0008251030F896F8351100F8A6F8251040F99
:1008B0008B6F8351110F8C6F84C08DF0BADC82C0B6
:1008C00089F08351190F8A6F8251010F8B6F835109
:1008D0001A0F8C6F84C08DF0ACDC82C089F083511C
:1008E000160F8A6F8251010F8B6F8351170F8C6F18
:1008F00084C08DF09EDC82C089F08351130F8A6F13
:100900008251010F8B6F8351140F8C6F84C08DF057
:1009100090DC8251030F896F8351130F8A6F8251CC
:10092000040F8B6F8351140F8C6F84C08DF081DCAA
:100930008251060F896F8351160F8A6F8251070FFC
:100940008B6F8351170F8C6F84C08DF072DC8251D6
:10095000030F896F8351160F8A6F8251040F8B6FBB
:100960008351170F8C6F84C08DF063DC8251060FAA
:10097000896F8351130F8A6F8251070F8B6F8351D9
:0C098000140F8C6F84C08DF054DC12004A
:10098C0082C089F000018351170F8A6F8251010FC9
:10099C008B6F8351180F8C6F84C08DF044DC8251A7
:1009AC000E0F896F8351130F8A6F82510B0F8B6F50
:1009BC008351100F8C6F84C08DF035DC82510B0F7E
:1009CC00896F8351130F8A6F8251080F8B6F83517C
:1009DC00100F8C6F84C08DF026DC82510E0F896F46
:1009EC008351160F8A6F82510B0F8B6F8351130F2C
:1009FC008C6F84C08DF017DC82510B0F896F835183
:100A0C00160F8A6F8251080F8B6F8351130F8C6FE7
:100A1C0084C08DF008DC82510C0F896F8351200F3C
:100A2C008A6F82510D0F8B6F8351210F8C6F84C095
:100A3C008DF019EC01F082510C0F896F83511D0F51
:100A4C008A6F82510D0F8B6F83511E0F8C6F84C078
:100A5C008DF019EC01F08251090F896F8351200F31
:100A6C008A6F82510A0F8B6F8351210F8C6F84C058
:100A7C008DF019EC01F08251090F896F83511D0F14
:100A8C008A6F82510A0F8B6F83511E0F8C6F84C03B
:100A9C008DF019EC01F082510C0F896F83511A0FF4
:100AAC008A6F82510D0F8B6F83511B0F8C6F84C01B
:100ABC008DF019EC01F08251090F896F83511A0FD7
:100ACC008A6F82510A0F8B6F83511B0F8C6F84C0FE
:100ADC008DF019EC01F08251060F896F83511A0FBA
:100AEC008A6F8251070F8B6F83511B0F8C6F84C0E1
:100AFC008DF019EC01F08251030F896F83511A0F9D
:100B0C008A6F8251040F8B6F83511B0F8C6F84C0C3
:100B1C008DF019EC01F082C089F083511A0F8A6FA5
:100B2C008251010F8B6F83511B0F8C6F84C08DF022
:100B3C0019EC01F082510C0F896F8351170F8A6FDA
:100B4C0082510D0F8B6F8351180F8C6F84C08DF0F9
:100B5C0019EC01F08251090F896F8351170F8A6FBD
:100B6C0082510A0F8B6F8351180F8C6F84C08DF0DC
:100B7C0019EC01F08251060F896F8351170F8A6FA0
:100B8C008251070F8B6F8351180F8C6F84C08DF0BF
:100B9C0019EC01F08251030F896F8351170F8A6F83
:100BAC008251040F8B6F8351180F8C6F84C08DF0A2
:060BBC0019EC01F012002B
:100BC2000001866B876B886B8651070845E39E6B35
:100BD20037EC00F086C09EF02FEC00F09E6B1CEC10
:100BE20000F0856B85513F0812E387518225F66E2E
:100BF20088518321F76E000E8421F86E0900F5CF2B
:100C02009EF058EC00F0874B882B852BEBD7400EDB
:100C12009E6F37EC00F086C09EF02FEC00F0400E85
:100C22009E6F1CEC00F0400E856F85517F0812E329
:100C320087518225F66E88518321F76E000E84213A
:100C4200F86E0900F5CF9EF058EC00F0874B882B28
:0A0C5200852BEBD7862BB8D71200D4
:100C5C000001876B5450000A0EE1050E566E070E0C
:100C6C00556E340E6B6F230E6C6F000E6D6F200E75
:100C7C00696F000E6A6F87518225E96E000E832121
:100C8C00EA6EEE5217E087518225E96E000E832141
:100C9C00EA6EEECF89F084C08AF085C08BF086C0F6
:100CAC008CF02BEC01F05650010F006E0050842795
:060CBC00872BE1D71200B6
:100CC20000018251050F896F8351140F8A6F82517F
:100CD200060F8B6F8351150F8C6F84C08DF019EC4A
:100CE20001F08251110F896F83510E0F8A6F825169
:100CF200120F8B6F83510F0F8C6F84C08DF019EC24
:100D020001F082510E0F896F83510E0F8A6F82514B
:100D12000F0F8B6F83510F0F8C6F84C08DF019EC06
:100D220001F08251110F896F8351110F8A6F825125
:100D3200120F8B6F8351120F8C6F84C08DF019ECE0
:100D420001F082510E0F896F8351110F8A6F825108
:100D52000F0F8B6F8351120F8C6F84C08DF019ECC3
:100D620001F08251110F896F83511D0F8A6F8251D9
:100D7200120F8B6F83511E0F8C6F84C08DF019EC94
:100D820001F08251110F896F83511A0F8A6F8251BC
:100D9200120F8B6F83511B0F8C6F84C08DF019EC77
:100DA20001F082510E0F896F83511D0F8A6F82519C
:100DB2000F0F8B6F83511E0F8C6F84C08DF019EC57
:100DC20001F082510E0F896F83511A0F8A6F82517F
:100DD2000F0F8B6F83511B0F8C6F84C08DF019EC3A
:100DE20001F08251110F896F8351170F8A6F82515F
:100DF200120F8B6F8351180F8C6F84C08DF019EC1A
:100E020001F08251110F896F8351140F8A6F825141
:100E1200120F8B6F8351150F8C6F84C08DF019ECFC
:100E220001F082510E0F896F8351170F8A6F825121
:100E32000F0F8B6F8351180F8C6F84C08DF019ECDC
:100E420001F082510E0F896F8351140F8A6F825104
:100E52000F0F8B6F8351150F8C6F84C08DF019ECBF
:100E620001F082510B0F896F8351170F8A6F8251E4
:100E72000C0F8B6F8351180F8C6F84C08DF019EC9F
:100E820001F082510B0F896F8351140F8A6F8251C7
:100E92000C0F8B6F8351150F8C6F84C08DF019EC82
:100EA20001F08251080F896F8351170F8A6F8251A7
:100EB200090F8B6F8351180F8C6F84C08DF019EC62
:100EC20001F08251080F896F8351140F8A6F82518A
:100ED200090F8B6F8351150F8C6F84C08DF019EC45
:100EE20001F08251050F896F8351170F8A6F82516A
:100EF200060F8B6F8351180F8C6F84C08DF019EC25
:040F020001F01200E8
:100F06002AEC13F000017D6B7E6B7F6B806B816B2F
:100F1600926A010ECD6EC00EF26E0F0EC16EFF0EFE
:100F2600936EB886B06ACF0EAF6EAC8415EC03F044
:100F36000B0E0B6E260E0C6E5D0E0D6E0D2EFED775
:100F46000C2EFCD70B2EFAD700000000300E826F55
:100F5600000E836F41EC03F0150E0B6E4B0E0C6EFC
:100F6600BE0E0D6E0D2EFED70C2EFCD70B2EFAD70D
:100F76000000270E826F000E836F41EC03F0150E02
:100F86000B6E4B0E0C6EBE0E0D6E0D2EFED70C2E7E
:100F9600FCD70B2EFAD700003E0E826F000E836F31
:100FA60041EC03F0150E0B6E4B0E0C6EBE0E0D6E65
:100FB6000D2EFED70C2EFCD70B2EFAD70000C3EC55
:100FC60002F0826BE3EC02F0800E826F0F0E836FED
:100FD600020E846F5BEC03F0340E826F1F0E836F7C
:100FE600000E846FEBDD1F0E0B6E710E0C6E1E0E67
:100FF6000D6E0D2EFED70C2EFCD70B2EFAD7000049
:10100600826BE3EC02F0010E796F7A6B7B6B7C6B83
:10101600776B786B010E726F736B340E826F1B0EDB
:10102600836F000E846FCADD0B0E0B6E260E0C6EE0
:101036005D0E0D6E0D2EFED70C2EFCD70B2EFAD79D
:1010460000000000826BE3EC02F07351000A38E105
:10105600340E826F170E836F000E846FAFDD010EA4
:10106600766F800E780A006E800E7619005C1AE3A1
:10107600520E826F000E836F76C084F0040E856F69
:10108600010E866FE8DD020E0B6E040E0C6EBA0EB4
:101096000D6E0D2EFED70C2EFCD70B2EFAD70000A8
:1010A600762BDFD70B0E0B6E260E0C6E5D0E0D6EBD
:1010B6000D2EFED70C2EFCD70B2EFAD70000000003
:1010C600010E826FE3EC02F0140E826F250E836F21
:1010D600000E846F73DD7251010AD8A427D37E2BCC
:1010E600D7D27951010AD8A482D07A51000AD8A45D
:1010F6007ED07C51000AD8A47AD07F51000AD8A4A9
:1011060076D08051000A73E18151000A70E1800EA9
:101116007719006E800E700A005C5FE277C082F07D
:1011260078C083F0010E846FD8EC03F00C0E77259F
:10113600006E00C077F000C082F078C083F0846B48
:10114600D8EC03F00B0E0B6E260E0C6E5D0E0D6EBC
:101156000D2EFED70C2EFCD70B2EFAD70000000062
:1011660081BA14D077C082F078C083F0010E846F04
:10117600D8EC03F0030E7825006E00C078F077C037
:1011860082F000C083F0846BD8EC03F081BC14D0ED
:1011960077C082F078C083F0010E846FD8EC03F03C
:1011A600030E785D006E00C078F077C082F000C054
:1011B60083F0846BD8EC03F077516F0A09E177C0AE
:1011C60082F078C083F0846BD8EC03F06F0E746FF6
:1011D60077C074F078C075F09AD7796B010E7A6F84
:1011E6007C6B7F6B806B010E7D6F816B776B60D242
:1011F60074C082F075C083F0846BD8EC03F07A512A
:10120600010AD8A47BD07951000AD8A477D07C51A2
:10121600000AD8A473D07F51000A70E18051000AF9
:101226006DE18151000A6AE1776B800E7719006ED5
:10123600800E6E0A005C57E277C082F078C083F0B9
:10124600010E846FC6EC04F0040E7725006E00C014
:1012560077F000C082F078C083F0846BC6EC04F0AF
:101266000B0E0B6E260E0C6E5D0E0D6E0D2EFED742
:101276000C2EFCD70B2EFAD70000000081BA10D036
:1012860077C082F078C083F0010E846FC6EC04F05C
:10129600782B77C082F078C083F0846BC6EC04F0BC
:1012A60081BC10D077C082F078C083F0010E846FC5
:1012B600C6EC04F0780777C082F078C083F0846BC0
:1012C600C6EC04F077516D0A09E177C082F078C068
:1012D60083F0846BC6EC04F06D0E746F77C074F007
:1012E60078C075F0A2D77A6B796B776B020E7D6F3B
:1012F600010E7C6F806B7F6B816B81D7D9D17A5160
:10130600000AD8A48BD07951000AD8A487D07C5182
:10131600010AD8A483D07F51000AD8A47FD0805177
:10132600000AD8A47BD08151000AD8A477D0776B65
:10133600800E7719006E800E6E0A005C64E277C03C
:1013460082F078C083F0010E846F7CEC03F0060E09
:101356007725006E00C077F000C082F078C083F079
:10136600846B7CEC03F00B0E0B6E260E0C6E5D0E82
:101376000D6E0D2EFED70C2EFCD70B2EFAD70000C5
:10138600000081BA14D077C082F078C083F0010ED5
:10139600846F7CEC03F0020E7825006E00C078F0B6
:1013A60077C082F000C083F0846B7CEC03F081BCD4
:1013B60014D077C082F078C083F0010E846F7CEC85
:1013C60003F0020E785D006E00C078F077C082F000
:1013D60000C083F0846B7CEC03F077516D0A0EE15C
:1013E60077C082F078C083F0846B7CEC03F074C025
:1013F60082F075C083F0846B7CEC03F077C074F0E8
:1014060078C075F095D77C6B010E7F6F7A6B796B20
:10141600806B816B776B030E7D6F71D749D17A51E3
:10142600000AD8A434D17951000AD8A430D17B510E
:10143600000AD8A42CD17F51010AD8A428D1805102
:10144600000AD8A424D18151000AD8A420D1776BF0
:10145600800E7719006E800E6B0A005CD8B00DD135
:101466007D51030AD8A409D177C082F078C083F0F1
:10147600010E846F23DC020E7725006E00C077F024
:1014860000C082F078C083F0846B18DC0B0E0B6E04
:10149600260E0C6E5D0E0D6E0D2EFED70C2EFCD795
:1014A6000B2EFAD70000000081BA13D077C082F065
:1014B60078C083F0010E846F01DC040E7825006E7F
:1014C60000C078F077C082F000C083F0846B61ECD6
:1014D60006F081BC14D077C082F078C083F0010E8C
:1014E600846F61EC06F0040E785D006E00C078F043
:1014F60077C082F000C083F0846B61EC06F077C0A1
:1015060074F078C075F077516A0A0EE177C082F000
:1015160078C083F0846B61EC06F074C082F075C00D
:1015260083F0846B61EC06F081B8A6D077C082F0B8
:1015360078C083F0010E846F61EC06F074C082F00F
:1015460075C083F0846BB3EC01F0806B010E816F84
:101556007F6B7A6B796B7C6B7A51000AD8A48CD03E
:101566007951000AD8A488D07B51000AD8A484D027
:101576007F51000AD8A480D08051000AD8A47CD01C
:101586008151010AD8A478D0786B74C077F0800EA8
:101596007719006E800E6B0A005C64E277C082F0F9
:1015A60078C083F0010E846FB3EC01F0020E77254C
:1015B600006E00C077F000C082F078C083F0846BC4
:1015C600B3EC01F00B0E0B6E260E0C6E5D0E0D6E5F
:1015D6000D2EFED70C2EFCD70B2EFAD700000000DE
:1015E60081BA14D077C082F078C083F0010E846F80
:1015F600B3EC01F0040E7825006E00C078F077C0D9
:1016060082F000C083F0846BB3EC01F081BC14D08F
:1016160077C082F078C083F0010E846FB3EC01F0DE
:10162600040E785D006E00C078F077C082F000C0CE
:1016360083F0846BB3EC01F077516A0A0EE177C050
:1016460082F078C083F0846BB3EC01F074C082F052
:1016560075C083F0846BB3EC01F077C074F078C08A
:1016660075F095D77F6B7A6B010E796F7C6B806B0B
:10167600816B776B7D6B70D7EBD67F6B7A6B010EC8
:10168600796F7C6B806B816B776B7D6BC8D610D066
:101696007D51000AD8B425D57D51010AD8B4A8D504
:1016A6007D51020AD8B42BD67D51030AD8B4B7D6D9
:1016B6007E513C0A3AE1800E640A006E800E77196C
:1016C600005C13E2826BE3EC02F0490E826F000EBF
:1016D600836F0F0E846F020E856F866B2EEC06F0FD
:1016E600726B826BE3EC02F021D0826BE3EC02F0CA
:1016F6001D0E826F000E836F0F0E846F020E856FB4
:10170600866B2EEC06F0010E726F826BE3EC02F034
:10171600150E826F000E836F0F0E846F020E856F9B
:0E172600866B2EEC06F0736B01D0D5D4FFD786
:1026540010EE15F03F0E006E010E016E140EF66EB4
:0E266400260EF76E000EF86E0DEC03F012005D
:1017340000000000000000000000000000000000A5
:10174400000000000008F0000000C06020202020FD
:10175400C0000000C04040C040C020000060202005
:101764002020A06020202060B00000008080008045
:101774008080808080C00000C02020202020700055
:1017840000E04040408000E0301010E00000000025
:101794000000000000000000000000000000000045
:1017A4000000000000000000000000000000000035
:1017B4000000000000000000000000000702020218
:1017C40002020202020207000000030404040406E9
:1017D40003000000030404010604070000000000E5
:1017E40000000304040404060300000000000001D8
:1017F40000000000000100000603020202020700CC
:1018040000030404040304070604040300000000A6
:1018140000000000000000000000000000000000C4
:1018240000000000000000000000000000000000B4
:101834000080808080808080808080808080808024
:101844008080808080808080808080808080808094
:101854008080808080808080808080808080808084
:101864008080808080808080808080808080808074
:101874008080808080808080808080808080808064
:101884008080808080808080808080808080808054
:101894008080808080808080808080808080808044
:1018A4008080808080808080808080800000000034
:1018B40000FF000000000000000000000000000025
:1018C4000000000000000000000000000000000014
:1018D4000000000000000000000000000000000004
:1018E40000000000000000000000000000000000F4
:1018F40000000000000000000000000000000000E4
:1019040000000000000000000000000000000000D3
:1019140000000000000000000000000000000000C3
:101924000000000000000000000000FF00000000B4
:1019340000FF0000000000000000000000000000A4
:101944000000000000000000000000000000000093
:101954000000000000000000000000000000000083
:101964000000000000000000000000000000000073
:101974000000000000000000000000000000000063
:101984000000000000000000000000000000000053
:101994000000000000000000000000000000000043
:1019A4000000000000000000000000FF0000000034
:1019B40000FF000000000000000000000000000024
:1019C4000000000000000000000000000000000013
:1019D4000000000000000000000000000000000003
:1019E40000000000000000000000000000000000F3
:1019F40000000000000000000000000000000000E3
:101A040000000000000000000000000000000000D2
:101A140000000000000000000000000000000000C2
:101A24000000000000000000000000FF00000000B3
:101A340000FF0000000000000000000000000000A3
:101A44000000000000000000000000000000000092
:101A54000000000000000000000000000000000082
:101A64000000000000000000000000000000000072
:101A74000000000000000000000000000000000062
:101A84000000000000000000000000000000000052
:101A94000000000000000000000000000000000042
:101AA4000000000000000000000000FF0000000033
:101AB40000070404040404040404040404040404E3
:101AC40004040404040404040404040404040404D2
:101AD40004040404040404040404040404040404C2
:101AE40004040404040404040404040404040404B2
:101AF40004040404040404040404040404040404A2
:101B04000404040404040404040404040404040491
:101B14000404040404040404040404040404040481
:101B2400040404040404040404040407000000007E
:101B340000000000000000000000000000000000A1
:101B44000000000000000000000000000000000091
:101B54000000000000000000000000000000000081
:101B64000000000000000000000000000000000071
:101B74000000000000000000000000000000000061
:101B84000000000000000000000000000000000051
:101B94000000000000000000000000000000000041
:101BA4000000000000000000000000000000000031
:101BB4000000000000000000000000000000000021
:101BC4000000000000000000000000000014BC60E1
:101BD400BC0C7C10000000000000000000000000AD
:101BE40000000000000000000000000000000000F1
:101BF40000000000000000000014014000801800F4
:101C040020000000000000000000000000000000B0
:101C140000000000000000000000000000000000C0
:101C240000000000000000000000000000000000B0
:101C34000000000000000000103E363C3CB6A2004C
:101C440000000000000000000000000000818F8CF4
:101C5400878CFF4600000000000000000000000028
:101C6400000080C060C0C0600000000000000000F0
:101C7400000000000000000000022441980040041D
:101C84000000000000000000000000000000000050
:101C94000000000000000000000000000000000040
:101CA4000000000000000000000000000000000030
:101CB4000000000000000000008E0FDBDFD9A00050
:101CC4000000000000000000000000000020BDB182
:101CD4003D313C280000000000000000000000002E
:101CE40000000137363737B68200000000000000DC
:101CF40000000000000000000000000001020E3897
:101D040060C00000000000000000000000000000AF
:101D140000000000000000000000000000000000BF
:101D240000000000000000000000000000000000AF
:101D3400000000000000000000EFCC5BD8CF83005F
:101D44000000000000000000000000000000D9D9DD
:101D5400DBCFC6840000000000000000000000008B
:101D6400000000C6E666F63711000000000000001F
:101D740000000000000000000000000000801002CD
:101D84000014810620000000000000000000000094
:101D9400000000000000000000000000000000003F
:101DA400000000000000000000000000000000002F
:101DB4000000000000000000006C6C6C6CE7C300C5
:101DC4000000000000000000000000000000E6E643
:101DD400F6DECE84000000000000000000000000D9
:101DE400000020F1C1F13BDF6200000000000000B0
:101DF40000000000000000000000009002200082AB
:101E04001008420002000000000000000000000072
:101E140000000000000000000000000000000000BE
:101E240000000000000000000000000000000000AE
:101E3400000000000000000000000000001031005D
:101E4400000000000000000000000000000080C04E
:101E540080009090000000000000000000000000DE
:101E640000000080808080D010000000000000008E
:101E74000000000000000000000000011018C00174
:101E8400200400000000000000000000000000002A
:101E9400000000000000000000000000000000003E
:101EA400000000000000000000000000000000002E
:101EB400000000000000000000030703010301000C
:101EC4000000000000000000000000000001070006
:101ED40001070706000000000000000000000000E9
:101EE40000000007010301050700000000000000D6
:101EF40000000000000000000000000000000100DD
:101F0400060810400000000000000000000000006F
:101F140000000000000000000000000000000000BD
:101F240000000000000000000000000000000000AD
:101F3400000000000000000000000000000000009D
:101F4400000000000000000000000000000000008D
:101F54000000000000000000000000000080C0C07D
:101F6400E0F0F0F8FCFCFCF8F0F0E0C0C080000009
:101F7400000000000080C0C0E0F0F0F8F8FCFCF8BD
:101F8400F8F0F0E0C0C08000000000000000000095
:101F9400000000000000000000000000000000003D
:101FA400000000000000000000000000000000002D
:101FB400000000000000000000000000000000001D
:101FC400000000000000000000000000000000000D
:101FD400000080C0C0E0F0F8F8FC7E7E3F1F1F0FB9
:101FE40007030301000000010383C7CFFFFFFFFEC7
:101FF400FEFCFEFFFFFFEFCF87030301010000019A
:10200400010307070F0F1F3F3F7EFCFCF8F0F0E0D1
:10201400C0C08000000000000000000000000000BC
:1020240000000000000000000000000000000000AC
:10203400000000000000000000000000000000009C
:10204400000000000000000000000070F8FCFCFE2E
:10205400FFFFDF8F8F070303010000000000000073
:1020640000000000183C7EFFFFFFFFFFE7C3C381B1
:102074000000010103078F8FDFFFFFFEFCFCF870F7
:1020840000000000000000000000000081C3C3E75E
:10209400FFFFFFFFFF7E3C1800000000000000006F
:1020A400000000000000000000000000000000002C
:1020B400000000000000000000000000000000001C
:1020C4000000000000000000000000000001010307
:1020D40007070F1F3F3F7EFCFCF8F0F0E0C0C08014
:1020E40000000000000000000001038387CFEFFF21
:1020F400FFFFFEFCFEFFFFFFEFC7C78301010000E7
:1021040080C0C0E0F0F0F8FCFC7E3F3F1F0F0F07DB
:1021140003030100000000000000000000000000B4
:1021240000000000000000000000000000000000AB
:10213400000000000000000000000000000000009B
:10214400000000000000000000000000000000008B
:10215400000000000000000000010303070F1F1F20
:102164003F7E7EFCF8F8F8FC7E7E3F1F1F0F0707BA
:102174000301000000010303070F0F1F3F3F3F3F10
:102184001F0F0F0703030100000000000000000000
:10219400000000000000000000000000000000003B
:1021A400000000000000000000000000000000002B
:1021B400000000E0F0F8F87878300000000000003B
:1021C40000008080000000000000E0F0F0703000AB
:1021D4000000000018383878F0E0000000C0E0F09B
:1021E400F0F0F060010101000000000000000000B8
:1021F4000080E0F0F0F0F0E0E080E0F0F8F8F8FCC7
:10220400FEFEFC00000000808000000000000000D2
:102214000000000000808000000020F0F8F878380A
:1022240000E0F0F0F8F8F8F8F0F0E08000000000CA
:10223400000000FFFFFFFF7E7E7E7E7E7E7E7E7E30
:102244007E7EFFFFFF0000000000FFFFFFE0E6E7E7
:10225400E7FFFFE7E7E6E0E0FFFF000000FFFFFF26
:10226400FFFCFCFCFCFCFCFCFCFCFCFCFFFFFE009B
:1022740000FFFFFFE7E7E7E7FFFFFFE7E3E3E3E351
:10228400F1F1E0000000FFFFFF7E7E7E7E7E7E7E19
:102294007E7E7E7E7EFFFFFF00003FFFFFF8F8FC9E
:1022A400FFFFFFFFFF3F0F83C3FFFF3F000000005E
:1022B400000000070F0F1F1E1E1C0000000000007E
:1022C400000001010000000000001F1F1F07070796
:1022D40007070707070707071F1F0000000F1F1F37
:1022E4003F3C3C38000000000000000003030100F4
:1022F400000F1F1F07070707070707070707070739
:102304001F1F0F000000000101000000000000007A
:1023140000000000000101000000000001010303AF
:102324000303010100030303030101000000000093
:10233400000000000000005F000000070007001418
:102344007F147F14242A7F2A1223130864623649D7
:102354005522500005030000001C224100004122C8
:102364001C00082A1C2A0808083E080800503000EF
:102374000008080808080030300000201008040293
:102384003E5149453E00427F400042615149462149
:1023940041454B311814127F1027454545393C4AB5
:1023A4004949300171090503364949493606494905
:1023B400291E00363600000056360000000814229C
:1023C4004114141414144122140800020151090682
:1023D400324979413E7E1111117E7F494949363E89
:1023E400414141227F4141221C7F494949417F09A2
:1023F4000901013E414151327F0808087F00417FB5
:1024040041002040413F017F081422417F40404069
:10241400407F0204027F7F0408107F3E4141413E19
:102424007F090909063E4151215E7F091929464663
:102434004949493101017F01013F4040403F1F208C
:1024440040201F7F2018207F63140814630304783E
:102454000403615149454300007F414102040810CF
:102464002041417F000004020102044040404040FA
:10247400000102040020545454787F4844443838FE
:1024840044444420384444487F3854545418087E03
:10249400090102081454543C7F0804047800447D64
:1024A40040002040443D00007F10284400417F400C
:1024B400007C041804787C080404783844444438C4
:1024C4007C14141408081414187C7C0804040848A8
:1024D40054545420043F4440203C4040207C1C2061
:1024E40040201C3C4030403C44281028440C5050B0
:1024F400503C4464544C44000836410000007F00C2
:1025040000004136080008082A1C08081C2A08088C
:10251400FF0101F1916191E10101619181916101F9
:102524000161919191610101D1714141E101016127
:1025340091E1916101010101010101F9010101012F
:102544000101010101010101010101010101010177
:102554000101010101010101010101010101010167
:102564000101010101010101010101010101010157
:1025740001010101010101010101010101014141C7
:10258400C1A1B10DB1A1A14141010101010101FFAD
:102594001F10101010101010101010101010101028
:1025A4001010101010101010101010101010101027
:1025B4001010101010101010101010131010101014
:1025C4001010101010101010101010101010101007
:1025D40010101010101010101010101010101010F7
:1025E40010101010101010101010101010101010E7
:1025F40010101010101010101010101010101010D7
:102604001010111611101010101010101010101FAF
:0826140052455455524E2100BD
:0A261C00594F55204C4F5345210043
:0926260041542B4241554434009B
:0E262F0041542B4E414D4554455452495300E1
:0B263D0041542B50494E30303030002B
:09264800594F552057494E21005D
:02265100230064
:020000040030CA
:0E000000000C1F1EFF8381FF0FC00FE00F409A
:00000001FF
